:100000000C94A8030C942E080C9407080C943D0A39
:100010000C943D0A0C943D0A0C94D0030C94D0032C
:100020000C94D0030C94D0030C94D0030C94D00304
:100030000C94D0030C94D0030C94D0030C94D003F4
:100040000C94BD070C94D0030C9493060C946D068D
:100050000C94D0030C94D0030C94D0030C94D003D4
:100060000C94D0030C94D0031B18351851186C183D
:100070007E18BC18C318CD18D818E218E218E21878
:10008000E218E218E218E218E218E218E218E218A0
:10009000E218E218E218E218E218E218E218E21890
:1000A000E218E218E218E2181B1830183518511837
:1000B0006C187E189918A418AF18084AD73B3BCE85
:1000C000016E84BCBFFDC12F3D6C74319ABD568357
:1000D0003DDA3D00C77F11BED9E4BB4C3E916BAA0F
:1000E000AABE000000803F05A84CCDB2D44EB9385E
:1000F00036A9020C50B9918688083CA6AAAA2ABE45
:10010000000000803F07634236B79BD8A71A3968C2
:100110005618AEBAAB558C1D3CB7CC5763BD6DEDD0
:10012000FD753EF6177231BF000000803F080000E9
:1001300000BE922449123EABAAAA2ABECDCCCC4C1A
:100140003E00000080BEABAAAAAA3E00000000BF8D
:10015000000000803F0000000000084178D3BB434E
:1001600087D1133D190E3CC3BD4282AD2B3E68ECD6
:100170008276BED98FE1A93E4C80EFFFBE01C4FF5D
:100180007F3F00000000000000407A10F35A00A0FA
:10019000724E18090010A5D4E80000E87648170050
:1001A00000E40B54020000CA9A3B000000E1F50590
:1001B000000080969800000040420F000000A086DA
:1001C00001000000102700000000E803000000000C
:1001D0006400000000000A000000000001000000B0
:1001E00000002C76D888DC674F0823DFC1DFAE59CA
:1001F000E1B1B796E5E3E453C63AE651997696E85D
:10020000E6C28426EB898C9B62ED407C6FFCEFBCE0
:100210009C9F40F2BAA56FA5F490055A2AF75C930B
:100220006B6CF9676DC11BFCE0E40D47FEF520E641
:10023000B500D0ED902E0300943577050080841E24
:10024000080000204E0A000000C80C333333330F7F
:10025000986E12831141EF8D2114893BE65516CF1C
:10026000FEE6DB18D1844B381BF77C1D901DA4BB28
:10027000E424203284725E228100C9F124ECA1E5DD
:100280003D27AED580A83FD300408D142002A1C8E1
:10029000DA12817FD9F1DB40A4A6AF4A504E00723A
:1002A00065616420257320302025640024504D545E
:1002B0004B3330312C322A32450D0A0024504D5434
:1002C0004B3331332C312A32450D0A0024504D5422
:1002D0004B3232302C313030302A31460024504DF0
:1002E000544B3331342C302C312C302C312C302CDD
:1002F000302C302C302C302C302C302C302C302C1E
:10030000302C302C302C302C302C302A3238002538
:10031000250048756D69643D256400430054656D92
:10032000703D256400557365723D2023253034648B
:1003300000252500426174746572793D20253032B4
:100340006400476569676965204E616E6F2025739B
:1003500000000005072060000000000000004F00C2
:10036000000007000700147F147F14242A7F2A123C
:10037000231308646236495522500005030000002B
:100380001C2241000041221C0014083E08140808E9
:100390003E080800503000000808080808006060A7
:1003A000000020100804023E5149453E00427F40B3
:1003B0000042615149462141454B311814127F10CA
:1003C00027454545393C4A494930017109050336FD
:1003D00049494936064949291E3636000000563635
:1003E00000000008142241001414141414004122C7
:1003F00014080201510906304979413E7E1111115C
:100400007E7F494949363E414141227F4141221C7C
:100410007F494949417F090909013E4149497A7F9C
:100420000808087F00417F41002040413F017F08CC
:100430001422417F404040407F020C027F7F04082D
:10044000107F3E4141413E7F090909063E4151214D
:100450005E7F09192946464949493101017F010159
:100460003F4040403F1F2040201F3F4030403F63FF
:100470001408146307087008076151494543007F59
:1004800041410002040810200041417F00040201A4
:1004900002044040404040000102040020545454F3
:1004A000787F504848303844444420384444487F9A
:1004B0003854545418087E0901020C5252523E7F9F
:1004C0000804047800447D40002040443D007F1033
:1004D00028440000417F400078045844787C080498
:1004E000047838444444387C14141408081414184C
:1004F0007C7C080404084854545420043F444020A1
:100500003C4040207C1C2040201C3C4030403C446F
:10051000281028440C5050503C4464544C4400086B
:1005200036410000007F000000413608000C020C3C
:10053000100C0000000000820219804000253034B9
:100540006425303264253032642E6C6F670020756C
:10055000532F68002075532F6800206D532F6800BB
:100560002043504D006B43504D002530356C642EB8
:100570002530346C64002530346C642E2530346CA6
:10058000640025250048756D69643D2564004300BD
:1005900054656D703D256400253032640024504D53
:1005A000544B3130342A3337004E4F2053442043CC
:1005B0004152442F204750532072657365740025C3
:1005C0003032642F2530326420253032643A2530B1
:1005D00032643A253032640057726F6E67206D6F57
:1005E000646520210075530044733D0075532F68E6
:1005F00020004D783D0042712F6D32006B42712F0B
:100600006D32006D42712F6D320043504D20006BF2
:1006100043504D20002D2D006B6D002042712F6D39
:100620003200207553762F68005E004E6F204750D1
:1006300053002530326468253032646D002A255815
:1006400025732425732C253034642C25642C2564D3
:100650002C25642C25732C25642C25642C25642CD6
:100660002564002425732C253034642C2530326415
:100670002D253032642D2530326454253032643AD1
:10068000253032643A253032645A2C256C642C258E
:100690006C642C256C642C25632C25732C25632C11
:1006A00025732C25632C25732C25632C25642C2580
:1006B0006C64006E616E6F0A232064656164746906
:1006C0006D653D6F6E0A00322E312E300023204EB4
:1006D0004557204C4F470A2320666F726D61743D69
:1006E0000000030C0F30333C3FC0C3CCCFF0F3FC11
:1006F000FF00000000240027002A00000000002561
:100700000028002B00000000002300260029000420
:1007100004040404040404020202020202030303A8
:1007200003030301020408102040800102040810A2
:10073000200102040810200000000800020100004F
:1007400003040700000000000000000055263F26BB
:1007500011241FBECFEFD8E0DEBFCDBF12E0A0E076
:10076000B1E0E6EFF4E602C005900D92A033B107C8
:10077000D9F725E0A0E3B2E001C01D92AD37B20782
:10078000E1F713E0C7EAD3E004C02197FE010E941D
:10079000E431C63AD107C9F70E9421100C946E3299
:1007A0000C940000CF92DF92EF92FF920F931F9371
:1007B000CF93DF936C017A018B01C0E0D0E0CE15BE
:1007C000DF0589F0D8016D918D01D601ED91FC9185
:1007D0000190F081E02DC6010995892B11F47E016D
:1007E00002C02196ECCFC701DF91CF911F910F91ED
:1007F000FF90EF90DF90CF900895FC01538D448DD2
:10080000252F30E0842F90E0821B930B541710F0BB
:10081000CF96089501970895FC01918D828D9817C8
:1008200061F0828DDF01A80FB11D5D968C91928DD4
:100830009F5F9F73928F90E008958FEF9FEF0895D1
:10084000FC01918D828D981731F0828DE80FF11D9A
:10085000858D90E008958FEF9FEF0895FC01918DB5
:10086000228D892F90E0805C9F4F821B91098F73AE
:100870009927089586E493E00E942E0421E0892BB5
:1008800009F420E0822F0895FC01848DDF01A80F78
:10089000B11DA35ABF4F2C91848D90E001968F73A8
:1008A0009927848FA689B7892C93A089B1898C91C7
:1008B00080648C93938D848D981306C00288F3898D
:1008C000E02D80818F7D80830895EF92FF920F93BA
:1008D0001F93CF93DF93EC0181E0888F9B8D8C8DEC
:1008E000981305C0E889F989808185FD24C0F62E1A
:1008F0000B8D10E00F5F1F4F0F731127E02E8C8DB3
:10090000E8120CC00FB607FCFACFE889F98980819C
:1009100085FFF5CFCE010E944404F1CF8B8DFE01FF
:10092000E80FF11DE35AFF4FF0820B8FEA89FB8934
:100930008081806207C0EE89FF896083E889F98938
:1009400080818064808381E090E0DF91CF911F916E
:100950000F91FF90EF900895CF93DF93EC01888D76
:100960008823C9F0EA89FB89808185FD05C0A889B3
:10097000B9898C9186FD0FC00FB607FCF5CF808139
:1009800085FFF2CFA889B9898C9185FFEDCFCE0183
:100990000E944404E7CFDF91CF91089580E090E07A
:1009A000892B29F00E943A0481110C9400000895CB
:1009B000833081F028F4813099F08230A1F00895DD
:1009C0008730A9F08830B9F08430D1F4809180006C
:1009D0008F7D03C0809180008F7780938000089581
:1009E00084B58F7702C084B58F7D84BD08958091D2
:1009F000B0008F7703C08091B0008F7D8093B000EE
:100A000008953FB7F8948091420390914303A091D9
:100A10004403B091450326B5A89B05C02F3F19F0AC
:100A20000196A11DB11D3FBFBA2FA92F982F88276E
:100A3000820F911DA11DB11DBC01CD0143E0660FC8
:100A4000771F881F991F4A95D1F70895089520911F
:100A50003B0330913C032817390771F490913A0316
:100A600080913903981741F0E0913A03F0E0E750A4
:100A7000FD4F808190E008958FEF9FEF08950895D6
:100A80001F93CF93DF93DC015C962D913C915D9792
:100A90002115310539F481E090E013969C938E93F3
:100AA00012973DC05196ED91FC91529750969C91B2
:100AB0005097892F80951FB75E964C915E9741FBAA
:100AC000772770F941FD6095F8944081772311F004
:100AD000492B01C048234083E9012197F1F748E001
:100AE000508160FF02C0592B01C058235083E90197
:100AF0002197F1F76695415099F7772321F090817E
:100B00008923808303C08081982B90831FBF5C96CC
:100B10008D919C915D970197F1F721E030E0C9013B
:100B2000DF91CF911F91089520913B0330913C03B9
:100B30002817390771F48091390320913A0390E026
:100B4000805C9F4F821B910960E470E00E94AE318F
:100B5000089580E090E0089520913B0330913C039C
:100B600028173907B9F490913A03809139039817FF
:100B700089F0E0913A03F0E0E750FD4F8081209149
:100B80003A0330E02F5F3F4F2F73332720933A0310
:100B900090E008958FEF9FEF0895E0913B03F0916F
:100BA0003C03E817F90769F4A389B4899C91858906
:100BB000809589238C9310923C0310923B0381E033
:100BC000089580E00895FC01F894A289B3899C916E
:100BD000442319F08089892B02C0818989238C9351
:100BE0007894F894A685B7859C91858589238C9304
:100BF000789428E030E090E8F894A689B7894C9181
:100C0000858984238C937894F894A28DB38D892F51
:100C100086234C91882319F0808D842B02C0818D0E
:100C200084238C937894F894A689B7894C9184890D
:100C3000842B8C937894969521503109E9F6F89499
:100C4000A685B7859C918485892B8C93789408958B
:100C5000089580E090E008958091340290913502EB
:100C6000A0913602B09137020196A11DB11D80936B
:100C7000340290933502A0933602B0933702089560
:100C80000E9420326115710579F0FB01019000206E
:100C9000E9F73197AF01461B570BDC01ED91FC9151
:100CA0000280F381E02D099480E090E008950F9395
:100CB0001F93CF93DF93EC010E9442068C016DE2FB
:100CC00072E0CE010E944206800F911FDF91CF910A
:100CD0001F910F9108950C9442061F920F920FB628
:100CE0000F9211242F933F934F935F936F937F93B2
:100CF0008F939F93AF93BF93EF93FF9386E493E01B
:100D00000E944404FF91EF91BF91AF919F918F9109
:100D10007F916F915F914F913F912F910F900FBEF7
:100D20000F901F9018951F920F920FB60F921124DB
:100D30002F938F939F93EF93FF93E0915603F0913E
:100D400057038081E0915C03F0915D0382FD12C046
:100D5000908180915F038F5F8F7320916003821772
:100D600051F0E0915F03F0E0EA5BFC4F958F8093D8
:100D70005F0301C08081FF91EF919F918F912F912F
:100D80000F900FBE0F901F901895CF93DF93282FD1
:100D900030E0F901E95CF84F8491F901ED5DF84F1D
:100DA000D491F901E15FF84FC491CC2391F0811106
:100DB0000E94D804EC2FF0E0EE0FFF1FEB5FF84F1E
:100DC000A591B491EC91ED2381E090E021F480E0D5
:100DD00002C080E090E0DF91CF9108951F93CF9300
:100DE000DF93282F30E0F901E95CF84F8491F90195
:100DF000ED5DF84FD491F901E15FF84FC491CC2338
:100E0000C9F0162F81110E94D804EC2FF0E0EE0FEC
:100E1000FF1FE550F94FA591B4918FB7F8941111C8
:100E200005C09C91ED2FE095E92302C0EC91ED2BDC
:100E3000EC938FBFDF91CF911F910895CF93DF93F4
:100E400090E0FC01ED5DF84F2491FC01E15FF84F6B
:100E50008491882361F190E0880F991FFC01EF5085
:100E6000F94FC591D491FC01E550F94FA591B4918A
:100E7000611109C09FB7F8948881209582238883E7
:100E8000EC912E230BC0623061F49FB7F894388147
:100E9000822F809583238883EC912E2B2C939FBFE8
:100EA00006C08FB7F894E8812E2B28838FBFDF917F
:100EB000CF9108958E3008F08E50877020910401F4
:100EC00090E4299F90011124822B80937C008091D3
:100ED0007A00806480937A0080917A0086FDFCCF4E
:100EE000809178002091790090E0922B08958F9264
:100EF0009F92AF92BF92CF92DF92EF92FF926B01DF
:100F00007C010E9401054B015C01C114D104E10484
:100F1000F104F1F00E940105DC01CB018819990967
:100F2000AA09BB09883E9340A105B10570F321E0F1
:100F3000C21AD108E108F10888EE880E83E0981EF5
:100F4000A11CB11CC114D104E104F10419F7DDCFD7
:100F5000FF90EF90DF90CF90BF90AF909F908F90D9
:100F600008952FB7F89460913E0370913F038091EC
:100F70004003909141032FBF08951F920F920FB627
:100F80000F9211242F933F938F939F93AF93BF930F
:100F900080913E0390913F03A0914003B0914103A3
:100FA00030913D0326E0230F2D3720F40296A11D3A
:100FB000B11D05C029E8230F0396A11DB11D209383
:100FC0003D0380933E0390933F03A0934003B0936F
:100FD00041038091420390914303A0914403B09157
:100FE00045030196A11DB11D8093420390934303D5
:100FF000A0934403B0934503BF91AF919F918F910C
:101000003F912F910F900FBE0F901F9018951F9238
:101010000F920FB60F9211242F933F934F935F932C
:101020006F937F938F939F93AF93BF93EF93FF93B0
:10103000E0910201F09103010995FF91EF91BF91B9
:10104000AF919F918F917F916F915F914F913F9160
:101050002F910F900FBE0F901F9018951F920F9217
:101060000FB60F9211242F933F934F935F936F937B
:101070007F938F939F93AF93BF93EF93FF93E091F1
:101080000001F09101010995FF91EF91BF91AF919E
:101090009F918F917F916F915F914F913F912F9190
:1010A0000F900FBE0F901F901895CF93DF93EC0118
:1010B0009C818E81981758F4E881F9810084F1852C
:1010C000E02D42E0CE0109958C818F5F8C83DF910A
:1010D000CF910895DC01ED91FC910084F185E02D24
:1010E00040E00994EF92FF921F93CF93DF931F92FA
:1010F000CDB7DEB77C01FC018681681790F464836C
:101100008085162F180F612F6F70C70149830E94C9
:101110006A0812951F70612F6061C7010E946A08FA
:101120004981F7018781869586958695481760F4F1
:101130004583642F606BC7010F90DF91CF911F91A2
:10114000FF90EF900C946A080F90DF91CF911F9160
:10115000FF90EF9008952F923F924F925F926F927F
:101160007F928F929F92AF92BF92CF92DF92EF9237
:10117000FF920F931F93CF93DF93CDB7DEB72797DF
:101180000FB6F894DEBF0FBECDBFDC0114962C91D4
:1011900014972B8315962C9015971A96AD90BC90AA
:1011A0001B97A114B10409F4E7C08C01F501449127
:1011B0003196C4903196549031967491E72EF12C6B
:1011C000F7E0EF0EF11C93E0F594E7949A95E1F7C0
:1011D000EC82F5013496D4903196E4916D1550F07F
:1011E000862F90E02E2F30E0D901AD0DB11D8A176A
:1011F0009B075CF06A3009F0BFC0F8018185422D81
:101200008E9D400D112460E0B1C0F0E14F9FA00120
:1012100011244C29C50106966D19F801F185F98351
:1012200042305105A0F4452B09F019825E9C9001D3
:101230005F9C300D1124629FA001639F500D11240B
:101240009A01280F391F3F832E83412C27C0E72F97
:10125000E77021F048E0442E4E1A01C0412CA82F1F
:10126000FC0140E050E07E2F7A1B761728F4749141
:10127000470F511D3196F7CFFC01E60FF11D549039
:101280004E9DB0014F9D700D5E9D700D1124260F77
:10129000371FA901480F591F5F834E83652C712C9E
:1012A000CC24C394D12C812C912C2FEF2C0D2A838C
:1012B0003C81231708F058C0312CF801818538167D
:1012C00008F04CC05A81511102C0332039F0F801A6
:1012D00045814F5F6B81C8010E947208A12CB12C1F
:1012E000A51480F5F501E80DF91D2E813F81E20F6F
:1012F000F31F2491442061F0CE14DF0449F4E22F5F
:10130000F0E0042C02C0F595E7950A94E2F72E2F41
:10131000F8018185823071F4E22F3110E295EF708F
:10132000F0E0EF51F94F2491622FC8012D830E9404
:1013300055082D81622FC8010E945508FFEFAF1A92
:10134000BF0ACECFB12C2981B21631F060E0C801BE
:101350000E945508B394F7CF3394AFCF860C971CF7
:10136000FFEFCF1ADF0AA1CF422D6FEFC8010E9415
:10137000720881E090E002C080E090E027960FB60E
:10138000F894DEBF0FBECDBFDF91CF911F910F91BB
:10139000FF90EF90DF90CF90BF90AF909F908F9095
:1013A0007F906F905F904F903F902F9008950F9394
:1013B0001F93CF93DF93EC01162F042F1B821A8209
:1013C00088EE93E0A0E0B0E08C839D83AE83BF8382
:1013D00088E191E0998388831F8A1E8A198E188E6E
:1013E0001B8E1A8E1D8E1C8E6E8D6E7F20FB61F9FA
:1013F0006E8F6695617081E06827842F0E94EE06EB
:1014000061E0802F0E941E07402F50E0FA01ED5D41
:10141000F84FE491E88BFA01E15FF84FE491F0E0D6
:10142000EE0FFF1FE550F94F859194919A8B898BB0
:1014300060E0812F0E941E078E8D81FD04C061E057
:10144000812F0E94EE061C87612F70E0FB01ED5D8D
:10145000F84FE491ED87FB01E15FF84FE491F0E094
:10146000EE0FFF1FEB5FF84F859194919F878E875A
:10147000DF91CF911F910F9108951F920F920FB698
:101480000F9211242F933F934F935F936F937F930A
:101490008F939F93AF93BF93EF93FF93E0913B03A1
:1014A000F0913C03309709F451C0968DA685B7851D
:1014B000858591FF04C09C91892329F447C09C91A4
:1014C000892309F043C0A389B4899C9185898095BB
:1014D00089238C93868997890197F1F7608D718DA7
:1014E000A685B785558538E020E0CB010197F1F757
:1014F000822F90E095958795282F4C91452309F0F0
:101500002068315091F7868D81FD209580913903B7
:1015100090E001968F73992730913A03381749F07C
:10152000A0913903B0E0A750BD4F2C9380933903AD
:1015300003C0868D8160868F828D938D0197F1F730
:10154000A389B4899C918589892B8C93FF91EF9114
:10155000BF91AF919F918F917F916F915F914F91CB
:101560003F912F910F900FBE0F901F901895CF9322
:10157000DF93EC018A8D9B8D892BF1F080913B03E9
:1015800090913C038C179D07B9F0009711F00E94D1
:10159000CD058E8D8E7F8E8F1092390310923A0377
:1015A000D0933C03C0933B03EB89FC8990818D89E8
:1015B000892B808381E001C080E0DF91CF91089585
:1015C0001F93CF93DF93182FC0E0D0E0219682E4E1
:1015D00095E00E949405892B51F46AE070E080E068
:1015E00090E00E947707C83CD10581F712C082E4E1
:1015F00095E00E94AC05111103C02CE330E002C05D
:101600002EE330E08217930741F781E0C83CD10513
:1016100009F480E0DF91CF911F910895DC01862FBE
:10162000262F30E0F901E15FF84FE491F0E0EE0F92
:10163000FF1FE550F94F4591549113965C934E93DB
:101640001297F901ED5DF84FE491EC93E095119656
:10165000EC9361E00C941E07CF92DF92EF92FF9221
:101660000F931F930E94B107009138021091390225
:1016700020913A0230913B02C0903002D09031026A
:10168000E0903202F09033026017710782079307EF
:1016900038F0AB01BC01401B510B620B730B0AC04D
:1016A0000095109520953095AB01BC01400F511F5E
:1016B000621F731F81E090E04C155D056E057F058C
:1016C00008F480E01F910F91FF90EF90DF90CF9092
:1016D0000895EF92FF920F931F93CF93DF93E82E1D
:1016E000F62E08E010E0C0E0D0E061E08F2D0E940F
:1016F000EE066AE070E080E090E00E947707CC0F91
:10170000DD1F8E2D0E94C506C80FD91F60E08F2DEA
:101710000E94EE060150110941F7CE01DF91CF91F1
:101720001F910F91FF90EF900895EF92FF920F930A
:101730001F93CF93DF937C01D62FC42F61E08D2FB1
:101740000E941E0761E08C2F0E941E0761E08D2F12
:101750000E94EE0661E08C2F0E94EE0660E08D2F65
:101760000E94EE0660E08C2F0E94EE0661E08C2F56
:101770000E94EE0661E08D2F0E94EE0660E08C2F45
:101780000E94EE0607E010E0FF24B701002E02C021
:10179000759567950A94E2F7617077278D2F0E94FF
:1017A000EE0661E08C2F0E94EE0660E08C2F0E9416
:1017B000EE060150110948F761E08C2F0E94EE06F9
:1017C00060E08D2F0E941E078D2F0E94C50660E0ED
:1017D0008C2F0E94EE068D2FDF91CF911F910F91DC
:1017E000FF90EF900C94C5061F93CF93DF93182FB3
:1017F00060E00E941E07C4E6D0E06AE070E080E08E
:1018000090E00E947707812F0E94C506892B11F076
:10181000219799F7DF91CF911F910895EF92FF9251
:101820000F931F93CF93DF93C82FF92ED62FE72E58
:1018300060E00E941E0761E08D2F0E941E076D2F41
:101840007E2D8C2F9F2D0E94690B00E010E0182F39
:1018500061E08C2F0E941E0761E08C2F0E94EE0633
:1018600060E08C2F0E94EE0661E08D2F0E94EE0654
:1018700060E08D2F0E94EE0660E08C2F0E941E0714
:101880006D2F7E2D8C2F9F2D0E94690B802B912B0D
:10189000DF91CF911F910F91FF90EF900895CF931B
:1018A000DF93D82FC62F61E00E941E0761E08C2FC6
:1018B0000E941E0761E08D2F0E94EE0661E08C2FD2
:1018C0000E94EE0660E08C2FDF91CF910C94EE0623
:1018D0000F931F93CF93DF938C01C0E0D0E0F8010A
:1018E00061918F01CE018C509E4F0E94732C2196E6
:1018F000CD32D105A1F78DE290E0DF91CF911F911C
:101900000F9108950F931F93CF93DF938C01C0E045
:10191000D0E0F80161918F01CE0188539F4F0E9462
:10192000732C2196C830D105A1F788E090E0DF91B3
:10193000CF911F910F9108950F931F93CF93DF9332
:10194000C3EED3E04A815B816881798183E090E0D6
:101950000E94950B888199810E94F40B6A817B819A
:10196000888199810E940E0C8C016A817B8188811B
:1019700099810E944F0CB801110F880B990B0E949E
:101980004B2E2AE037ED43E25CE30E946E2F20E00D
:1019900030E040E252E40E94B82CDF91CF911F91D9
:1019A0000F9108954F925F926F927F928F929F92C4
:1019B000AF92BF92CF92DF92EF92FF92CF93DF93DD
:1019C000C3EED3E04A815B816881798185E090E054
:1019D0000E94950B888199810E94F40B6A817B811A
:1019E000888199810E940E0C7C016A817B818881AB
:1019F00099810E944F0CB701FF0C880B990B0E9434
:101A00004B2E6B017C0124E533EE45E25DE30E9441
:101A10006E2F20E030E040E850E40E94B82C4B01EB
:101A20005C0122EA37EE4BE356EBC701B6010E9498
:101A30006E2FA70196010E946E2F9B01AC01C5017C
:101A4000B4010E94B92C4B015C010E949C0C20E067
:101A500030E048EC51E40E94B82C2B013C012CEA08
:101A600035EC47EA58E3C701B6010E946E2F2AE021
:101A700037ED43E25CE30E94B92C9B01AC01C3014A
:101A8000B2010E946E2FA50194010E94B92CDF9132
:101A9000CF91FF90EF90DF90CF90BF90AF909F904D
:101AA0008F907F906F905F904F9008950F931F934A
:101AB000CF93DF93EC0160E070E0CB01E99120ED82
:101AC0002E0F2A30C0F4AAE0B0E09B01AC010E94C6
:101AD000EA310E2FEE0F110B220B330BDC01CB0181
:101AE000800F911FA21FB31FBC01CD01605371096C
:101AF00081099109E3CFDF91CF911F910F91089553
:101B00000F931F93CF93C1E0809124058D3221F074
:101B1000C0E004E215E002C005E215E0C8010E9441
:101B2000560D9B01AC01A4E6B0E00E94EA31F80139
:101B3000DF01219130ED320F3A30D0F32E3269F5CA
:101B400011962C91119730ED320F3A3030F5022E6C
:101B5000000C330B205331094AE0429F8001439F20
:101B6000100D1124012E000C220B330B600F711F7E
:101B7000821F931F12960C9120ED200F2A3068F4DB
:101B8000002E000C110B00531109012E000C220B2A
:101B9000330B600F711F821F931FCC2339F0909578
:101BA0008095709561957F4F8F4F9F4FCF911F917B
:101BB0000F9108954F925F926F927F928F929F92B2
:101BC000AF92BF92CF92DF92EF92FF92CF93DF93CB
:101BD00084E295E00E94560D2B013C0124E630E0A2
:101BE00040E050E00E94C2319B01AC0160EA76E81F
:101BF00081E090E00E949E316B017C01E4E2F5E01F
:101C0000819190ED980F9A30D8F38E3219F5EF014B
:101C100080E1882E87E2982EA12CB12CA99180ED2D
:101C20008A0F8A30B8F40A2E000CBB0BD097A5019E
:101C300094010E94F531C60ED71EE81EF91EC5019B
:101C4000B4012AE030E040E050E00E94C231490196
:101C50005A01E4CFC701B6016B5F7F4F8F4F9F4F93
:101C600026E030E040E050E00E94C23169017A0194
:101C7000C301B20124E630E040E050E00E94C231EE
:101C800060E472E48FE090E00E949E316C0D7D1D57
:101C90008E1D9F1DDF91CF91FF90EF90DF90CF9031
:101CA000BF90AF909F908F907F906F905F904F907C
:101CB00008954F925F926F927F928F929F92AF9210
:101CC000BF92CF92DF92EF92FF92CF93DF9384E2A5
:101CD00095E00E94560D2B013C01E4E2F5E0819174
:101CE00090ED980F9A30D8F38E3231F5EF0180E104
:101CF000882E87E2982EA12CB12CC12CD12C7601F4
:101D0000A99180ED8A0F8A30D0F40A2E000CBB0B0B
:101D1000D097A50194010E94F531C60ED71EE81E8A
:101D2000F91EC501B4012AE030E040E050E00E9415
:101D3000C23149015A01E4CFC12CD12C7601A30153
:101D4000920160EA76E881E090E00E949E316C0D9D
:101D50007D1D8E1D9F1DDF91CF91FF90EF90DF9035
:101D6000CF90BF90AF909F908F907F906F905F903B
:101D70004F9008958EE00E945A07BC01990F880B7E
:101D8000990B0E944B2E23E333E343E550E40E947A
:101D90006E2F20E030EC4FE754E40E94A12D2CE898
:101DA0003EE24AEB5DE30E94A12D0895CF93DF93BD
:101DB00085E10E945A0784E10E945A07EC018FE0F6
:101DC0000E945A07BE01DD0F880B990B0E944B2E13
:101DD00020E030E04CE953E40E94B82C20E030E0F1
:101DE00043E154E40E94A12D20E030E04AE754E4AE
:101DF0000E94A12D20E030E041E654E40E946E2FC5
:101E00002AE73DE341E350E40E946E2F9B01AC01C1
:101E100060E070E080E291E40E94DB2F60931001AB
:101E2000709311018093120190931301DF91CF9170
:101E300008958F929F92AF92BF92CF92DF92EF92CE
:101E4000FF920F931F93CF93DF93CDB7DEB7A19788
:101E50000FB6F894DEBF0FBECDBF6C01990FEE0830
:101E6000FF08F7FE33C0E0916105F0916205019033
:101E7000F081E02D6DE281E695E009958C01222745
:101E80003327A9012C193D094E095F0919A2CE017A
:101E900081967C019AE0892E912CA12CB12CCA014B
:101EA000B901A50194010E94C231605DF7016293FE
:101EB0007F01211531054105510589F7BF0181E6F3
:101EC00095E00E944206800F911F1FC0A701960156
:101ED00019A28E010F5D1F4F8AE0C82ED12CE12C74
:101EE000F12CCA01B901A70196010E94C231605DBF
:101EF000F80162938F01211531054105510589F7DC
:101F0000BF0181E695E00E944206A1960FB6F894C3
:101F1000DEBF0FBECDBFDF91CF911F910F91FF901C
:101F2000EF90DF90CF90BF90AF909F908F900895EB
:101F30000F931F93CF93DF93C0916805C695C69505
:101F4000C695C150109167051150D0E04D2F60E04B
:101F500081E695E00E94720800E060E081E695E08D
:101F60000E9455080F5F1017C0F7DF5FCD1770F79D
:101F700040E060E081E695E0DF91CF911F910F9105
:101F80000C947208FC01138E128E118E108E178A1B
:101F9000168A8DEC90E0958F848F8485863108F0C9
:101FA0004DC025E530E0378B268B2BEC30E0318FB0
:101FB000208F20E930E0338F228F909168008830A5
:101FC00050F021E08E3008F420E081E001C0880F5D
:101FD0002A95EAF701C084E0892B80936800848504
:101FE000883038F08E3040F0863148F020E030E024
:101FF00008C02DE630E005C02BE630E002C02CE63C
:1020000030E0348B238B883030F491E001C0990F9D
:102010008A95EAF70EC0282F30E08E3018F4285049
:10202000310902C02E50310991E001C0990F2A9563
:10203000EAF7958B848D958D0197F1F7CF010C947C
:10204000B70ACF93DF93CDB7DEB7E1970FB6F89419
:10205000DEBF0FBECDBF789484B5826084BD84B5E9
:10206000816084BD85B5826085BD85B5816085BD93
:1020700080916E00816080936E001092810080914B
:1020800081008260809381008091810081608093D3
:102090008100809180008160809380008091B100F8
:1020A00084608093B1008091B00081608093B00023
:1020B00080917A00846080937A0080917A008260B7
:1020C00080937A0080917A008E7F80937A0080914D
:1020D0007A00806880937A001092C10061E082E10A
:1020E0000E941E0760E083E10E941E07E0915603F4
:1020F000F091570382E08083E0915203F091530303
:102100001082E0915403F091550387E6808310928A
:102110005E03E0915A03F0915B0386E08083E091D7
:102120005803F0915903808180618083E0915803C6
:10213000F0915903808188608083E0915803F09189
:102140005903808180688083E0915803F09159039E
:1021500080818F7D8083E091A704F091A8048DE2B7
:10216000DF011D928A95E9F70091A7041091A80458
:10217000E12CF12CC7018C509E4F0E946B2CF80172
:1021800081938F01FFEFEF1AFF0A2DE2E216F104AF
:1021900089F7E091A704F091A80480819181A28140
:1021A000B3818D30904FAE4FBA4509F450C08DE2E7
:1021B000DF011D928A95E9F7E091A704F091A80448
:1021C0008DE090EFAEEFBAE580839183A283B38375
:1021D00082ED90E0978B868B89E083A38BE992E078
:1021E0009F938F93B496FF93EF930E946427E0919F
:1021F000A704F091A8048CE3808F80E090E0A7EA28
:10220000B3E4818F928FA38FB48F80E090E0A4E13C
:10221000B2E4858F968FA78FB0A384E690E093A752
:1022200082A7CF010E94680CE091A904F091AA0452
:1022300088E0DF011D928A95E9F78091A9049091C9
:10224000AA040E94820C0F900F900F900F9082E4CE
:1022500095E00E94C20F61E084E00E941E0782E4C4
:1022600095E00E94B70A60E084E00E94EE0664E612
:1022700070E080E090E00E94770761E084E00E94D7
:10228000EE0681E00E94E00A811104C081E08093A3
:10229000B60203C081E0809340028091400288230F
:1022A00009F482C28091A5049091A6040E94B70A05
:1022B0008091AE048F938091AD048F9384E691E07A
:1022C0009F938F938FE992E09F938F938091AC04BB
:1022D0008F938091AB048F930E9464276091AB042D
:1022E0007091AC048091A5049091A6040E946B06A5
:1022F0008091A5049091A604DC01ED91FC910190E0
:10230000F081E02D6DE009950FB6F894DEBF0FBEA9
:10231000CDBF8091A5049091A604DC01ED91FC91C4
:102320000084F185E02D0995892B99F38091A5040E
:102330009091A604DC01ED91FC910284F385E02DDF
:1023400009950D9731F74091AD045091AE0460E0CE
:1023500070E08091AB049091AC040E94253200E0C3
:1023600010E0D12C8091A5049091A604DC01ED91A0
:10237000FC910084F185E02D0995892BC1F011E0D5
:102380001D0DE090AB04F090AC04ED0CF11C8091BD
:10239000A5049091A604DC01ED91FC910284F385E3
:1023A000E02D0995F7018083D12E00E010E061E077
:1023B00070E080E090E00E9477078D2D90E0209102
:1023C000AD043091AE048217930721F480E010E051
:1023D00008E01FC00F5F1F4F083EF3E01F0714F215
:1023E000F5CFCC24C394C80ED901A80FB11D8C9190
:1023F0008A3039F09F5F8C2D6C2D70E06417750763
:1024000081F7DF01A90FB11D1C928081811111C0DC
:102410008C2D8D1508F0C0C12091AB043091AC0417
:10242000F901E80FF11D4091AD045091AE0490E028
:10243000D8CF833269F3933058F35E2F9F01822FF8
:10244000851B7901D7014C912F5F3F4F403229F412
:10245000822F851B8913F3CFDBCF4930C9F389174E
:10246000B9F2DF01A80FB11D2C912D3339F02032C4
:1024700011F0293009F41C928F5FF1CF891741F2D6
:102480008F5F1C925F01A80EB11CD5012C912032E8
:1024900021F48F5F8913F6CFBBCF2930D1F3891791
:1024A00009F4B6CF61E771E0C7010E942C32892B95
:1024B00019F5C5010E943E27BC01990F880B990BA5
:1024C0000E944B2E4B015C01E090A704F090A80401
:1024D0009B01AC01F701618D728D838D948D0E94FB
:1024E000972D882309F494CFD70159968D929D9208
:1024F000AD92BC925C9736C166E771E0C7010E945D
:102500002C32892B19F5C5010E943E27BC01990F79
:10251000880B990B0E944B2E4B015C01E090A704A5
:10252000F090A8049B01AC01F701658D768D878D35
:1025300090A10E94972D882309F46ACFD7015D9658
:102540008D929D92AD92BC9290970CC16BE771E019
:10255000C7010E942C32892B41F4E090A704F0902F
:10256000A804B6E0EB0EF11C75C06EE771E0C70180
:102570000E942C32892B89F4E090A704F090A804E3
:10258000C5010E943E27F701268937892817390798
:1025900009F43ECF978B868BE5C062E871E0C701F6
:1025A0000E942C32892B99F4E090A704F090A804A3
:1025B000C5010E943E27D70114962C91149730E054
:1025C0002817390709F424CF14968C93CBC065E8FB
:1025D00071E0C7010E942C32892B81F4E090A7049E
:1025E000F090A804C5010E943E27F701258130E044
:1025F0002817390709F40CCF8583B4C068E871E067
:10260000C7010E942C32892BA9F4E090A704F09016
:10261000A804C5010E943E27D70191962D913C91B7
:1026200092972817390709F4F3CE92969C938E93CC
:10263000919798C06BE871E0C7010E942C32892BFA
:10264000A9F4F5011382E090A704F090A804F4E245
:10265000EF0EF11CB501C7010E942C32892B09F441
:10266000D7CEB501C7010E9435327CC06EE871E05B
:10267000C7010E942C32892B99F4E090A704F090B6
:10268000A804C5010E943E27D70193962C919397E9
:1026900030E02817390709F4BBCE93968C9362C0BB
:1026A00061E971E0C7010E942C32892B81F4E0902E
:1026B000A704F090A804C5010E943E27F70120A5B9
:1026C00030E02817390709F4A3CE80A74BC064E98E
:1026D00071E0C7010E942C32892B99F4E090A70485
:1026E000F090A804C5010E943E27D70199962C912D
:1026F000999730E02817390709F48ACE99968C9378
:1027000031C067E971E0C7010E942C32892B89F43E
:10271000E090A704F090A804C5010E943E27F701AD
:1027200022A533A52817390709F472CE93A782A7EB
:1027300019C06AE971E0C7010E942C32892BA1F40B
:10274000E090A704F090A804C5010E943E27D7019D
:102750009C962C919C9730E02817390709F458CEA5
:102760009C968C9311E054CE6DE971E0C7010E94F4
:102770002C32892B09F04CCEE091A904F091AA04E7
:10278000DF01202F1D922A95E9F78091A9049091ED
:10279000AA040E94820C3CCE112331F08091A70440
:1027A0009091A8040E94680C10923D0210923C0285
:1027B00088E893E1A0E0B0E080933002909331028A
:1027C000A0933202B0933302109234021092350279
:1027D00010923602109237028CE296E0909301013B
:1027E0008093000180916900836080936900E89A7A
:1027F0000E94B107609338027093390280933A02C5
:1028000090933B02109234021092350210923602DD
:10281000109237028FEA94E00E94C20F8FEA94E090
:102820000E94B70AF9EEEF2EF3E0FF2E17E8D7016A
:10283000E12F1D92EA95E9F78DED92E09F938F933A
:10284000FF92EF920E946427B7018FEA94E00E9402
:102850005706D701E12F1D92EA95E9F78CEC92E03B
:102860009F938F93FF92EF920E946427B7018FEAA4
:1028700094E00E945706D701E12F1D92EA95E9F7EF
:102880008CEB92E09F938F93FF92EF920E946427CC
:10289000B7018FEA94E00E945706D7011D921A955E
:1028A000E9F78CEA92E09F938F93FF92EF920E9458
:1028B0006427B7018FEA94E00E94570600E714E00E
:1028C0000FB6F894DEBF0FBECDBFA8ECEA2EF12CF8
:1028D000C7010E946B2CD8018D938D01BFEFEB1ABD
:1028E000FB0AE0EDEE16F10499F781E08093040114
:1028F00061E08DE00E941E0760E08DE00E94EE0620
:102900006AE070E080E090E00E94770761E08DE08F
:102910000E94EE066AE070E080E090E00E94770797
:102920006CE08DE695E00E940E0B6BE081E795E090
:102930000E940E0B6AE085E795E00E940E0B69E0AD
:1029400089E795E00E940E0B1092650510926605CE
:10295000E7E3F5E085919491082FE9E3F5E0149120
:10296000EAE3F5E0E491E0936705EBE3F5E0E49159
:10297000E0936805ECE3F5E0E491E09369057C0100
:102980008E2D801B811750F4F701649181E695E04C
:102990000E946A08FFEFEF1AFF0AF2CF81E593E089
:1029A00090936C0580936B050E94980F82EA91E0EA
:1029B0009F938F9382E493E09F938F9389E892E0B3
:1029C0009F938F930E94642740E060E081E695E04A
:1029D0000E9472080F900F900F900F900F900F9021
:1029E00080917C04811103C068EA71E002C06AEA48
:1029F00071E081E695E00E946B0669E872E081E68D
:102A000095E00E946B0641E060E081E695E00E945F
:102A100072080E94BA0E20E030E040E650E40E94C6
:102A2000B82C20E030E046E253E40E946E2F0E9472
:102A3000132E77FD06C0653671052CF064E670E054
:102A400002C061E070E07F936F9384E393E09F9313
:102A50008F9309E812E01F930F930E946427B80137
:102A600081E695E00E946B0681E393E09F938F934C
:102A70001F930F930E946427B80181E695E00E949E
:102A80006B0642E060E081E695E00E94720880916A
:102A90008F048F9380918E048F9385E293E09F93B0
:102AA0008F931F930F930E946427B80181E695E0EE
:102AB0000E946B060E949C0C0E94132E70930D01C5
:102AC00060930C010E94D20C0E94132E70930B0194
:102AD00060930A0143E060E081E695E00E9472089D
:102AE00080910D018F9380910C018F938DE193E084
:102AF0009F938F931F930F930E946427B80181E6E1
:102B000095E00E946B068BE193E09F938F931F9358
:102B10000F930E946427B80181E695E00E946B063E
:102B200043E064E381E695E00E94720880910B0126
:102B30008F9380910A018F9382E193E09F938F930B
:102B40001F930F930E9464270FB6F894DEBF0FBE49
:102B5000CDBFB80181E695E00E946B068FE093E05F
:102B60009F938F931F930F930E946427B80181E670
:102B700095E00E946B0647E060E081E695E00E94E8
:102B800072086CEA71E081E695E00E946B0668EBE2
:102B90007BE080E090E00E9477070E94980F0F9002
:102BA0000F900F900F908FEF9FEFAC01495E534055
:102BB0005FA74EA783E10E945A07853F91401CF012
:102BC00010927C0407C081E080937C0460E082E185
:102BD0000E94EE060E94BA0E20E030E040E650E48B
:102BE0000E94B82C20E030E04AEF52E40E946E2FA1
:102BF0000E94132E643171054CF468EE73E080E09E
:102C000090E00E94770781E080937C048FEA94E053
:102C10000E94B70A0E94B1076B017C01E2E07E2EA0
:102C200011E00E94B10746015701861A970AA80AC7
:102C3000B90AC616D706E806F90618F0D501C40188
:102C400006C0D501C40180959095A095B095883EA9
:102C50009340A105B10508F0E4C20E942C0B892B1A
:102C600009F0DFC28FEA94E00E949405892BC9F233
:102C70008FEA94E00E94AC05082F8091380590916E
:102C80003905A0913A05B0913B050196A11DB11DF2
:102C90008093380590933905A0933A05B0933B058E
:102CA000043209F49DC2E0913505053234F40A304E
:102CB00071F00D3009F0A1C20AC00A3241F00C32A5
:102CC00009F09BC280912205802780932205EF3076
:102CD00008F078C2F0E0EC5DFA4F10828091230595
:102CE000882309F46EC1209124053FEB320F822F17
:102CF000022E000C990B363010F4C79707C02156EE
:102D0000263018F48755910901C0C097382F3295A5
:102D1000307F209125054FEB420F822F022E000CB1
:102D2000990B463010F4C79707C02156263018F487
:102D30008755910901C0C097830F9091220589138F
:102D400036C180913605882309F4EBC080913C059B
:102D500090913D05019690933D0580933C058091AF
:102D6000160590911705A0911805B091190580934B
:102D7000120590931305A0931405B0931505809147
:102D80001E0590911F05A0912005B091210580930B
:102D90001A0590931B05A0931C05B0931D05809107
:102DA0003305882309F464C0813009F00BC2809197
:102DB000D2049091D304A091D404B091D50480930F
:102DC000CE049093CF04A093D004B093D10480910B
:102DD000DA049091DB04A091DC04B091DD048093CF
:102DE000D6049093D704A093D804B093D9048091CB
:102DF000E2049091E304A091E404B091E50480938F
:102E0000DE049093DF04A093E004B093E10480918A
:102E1000EA049091EB04A091EC04B091ED0480934E
:102E2000E6049093E704A093E804B093E90480914A
:102E3000FA049091FB04A091FC04B091FD048093EE
:102E4000F6049093F704A093F804B093F9048091EA
:102E5000020590910305A0910405B09105058093AA
:102E6000FE049093FF04A0930005B0930105AAC14E
:102E70008091F2049091F304A091F404B091F504D0
:102E80008093EE049093EF04A093F004B093F104C8
:102E90008091D2049091D304A091D404B091D50430
:102EA0008093CE049093CF04A093D004B093D10428
:102EB0008091E2049091E304A091E404B091E504D0
:102EC0008093DE049093DF04A093E004B093E104C8
:102ED0008091EA049091EB04A091EC04B091ED0490
:102EE0008093E6049093E704A093E804B093E90488
:102EF000809110059091110590930F0580930E0518
:102F000080910A0590910B05A0910C05B0910D05DB
:102F10008093060590930705A0930805B0930905D3
:102F200051C18091D2049091D304A091D404B09166
:102F3000D5040097A105B10509F444C140911605D7
:102F4000509117056091180570911905409312056D
:102F50005093130560931405709315052091330564
:102F60002223E1F0213009F02DC18093CE0490930B
:102F7000CF04A093D004B093D1048091DA0490914F
:102F8000DB04A091DC04B091DD048093D60490931F
:102F9000D704A093D804B093D90414C18093CE046D
:102FA0009093CF04A093D004B093D1040BC180912F
:102FB0003E0590913F05019690933F0580933E0515
:102FC00001C19091340591111EC044E255E0EDEB32
:102FD000F1E0CA01DC012D91CD01222311F40C9402
:102FE000372631912317B1F3E7E2F2E0DA018D9150
:102FF000AD01882311F40C943B2691918917B1F30C
:1030000070923305DFC0E0913305E23009F4DAC095
:1030100080912405882309F4D5C0B0E2EB9FF0012C
:103020001124E92B3197E932F10508F0CBC0EC5CB3
:10303000FF4F0C94E4310E94800D6093D204709392
:10304000D3048093D4049093D5040E94B107609375
:103050001605709317058093180590931905B2C053
:1030600091E0813409F08BC08BC0809137058823B3
:1030700019F00E94590E02C00E94DA0D6093E2041A
:103080007093E3048093E4049093E5040E94B107F5
:1030900060931E0570931F05809320059093210572
:1030A00091C0833509F08EC08091E2049091E304D1
:1030B000A091E404B091E504B095A0959095819518
:1030C0009F4FAF4FBF4F8093E2049093E304A093D0
:1030D000E404B093E50476C080913705882319F0A5
:1030E0000E94590E02C00E94DA0D6093EA047093A8
:1030F000EB048093EC049093ED0464C0873509F0F1
:1031000061C08091EA049091EB04A091EC04B0912D
:10311000ED04B095A095909581959F4FAF4FBF4F0F
:103120008093EA049093EB04A093EC04B093ED0435
:1031300049C00E94800D6093FA047093FB04809351
:10314000FC049093FD043EC00E94800D6093020534
:1031500070930305809304059093050533C084E2C2
:1031600095E00E94560D6093DA047093DB0480931F
:10317000DC049093DD0426C091E081330CF490E0F0
:10318000909336051FC084E295E00E943E27992760
:10319000909311058093100515C00E94800D6093D7
:1031A0000A0570930B0580930C0590930D050AC0DA
:1031B0000E94800D6093F2047093F3048093F404F2
:1031C0009093F504809134058F5F809334051092BD
:1031D000350581E00A3209F080E08093230542CD75
:1031E0001092350510923405109222057092330525
:1031F000109223051092360535CDEE3040F481E073
:103200008E0F80933505F0E0EC5DFA4F00838091DE
:103210002305811127CD80912205802780932205E7
:1032200021CD0E942C0B892B11F40C942C2620917B
:1032300034023091350240913602509137022D838D
:103240003E834F8358870E94B10760933802709382
:10325000390280933A0290933B021092340210920A
:10326000350210923602109237028091F502909149
:10327000F602A091F702B091F802FC01EE0FFF1FD9
:10328000EE0FFF1FBF016B537D4F2D813E814F819C
:103290005885FB012083318342835383BC01CD01D8
:1032A0006F5F7F4F8F4F9F4F2CE030E040E050E04A
:1032B0000E94C2316093F5027093F6028093F70288
:1032C0009093F802E5ECF2E060E070E0CB01019150
:1032D000119121913191600F711F821F931F22E084
:1032E000E53FF207A1F70E94492E6B017C0122EB1A
:1032F00035EC4CEF55E30E946E2F9B01AC0160E072
:1033000070E080E89FE30E94B82C9B01AC01C701EC
:10331000B6010E94A12D0E941A2E69837A838B83A5
:103320009C838091C1029091C202A091C302B0918E
:10333000C4022D813E814F815885820F931FA41FA7
:10334000B51F8093C1029093C202A093C302B093B1
:10335000C4028091BD029091BE02A091BF02B091C3
:10336000C0020596A11DB11D8093BD029093BE02BF
:10337000A093BF02B093C0028091B9029091BA02AB
:10338000A091BB02B091BC0229813A814B815C8142
:1033900082179307A407B50740F42093B90230932E
:1033A000BA024093BB025093BC028091700490918A
:1033B0007104A0917204B09173042D813E814F81FC
:1033C0005885820F931FA41FB51F8093700490939C
:1033D0007104A0937204B09373048091740490916B
:1033E0007504A0917604B0917704BC01CD016B5FA8
:1033F0007F4F8F4F9F4F6093740470937504809339
:1034000076049093770420E13EE040E050E00E9493
:10341000C231672B682B692B21F480E794E00E946E
:10342000820C8091B7029091B8028C3091054CF4D7
:1034300026E520930F0101969093B8028093B7027E
:103440000DC089819A81AB81BC81892B8A2B8B2B02
:1034500011F486E501C081E480930F018091B602EA
:103460008111BFC080910E01813409F0BAC0C090B3
:10347000D604D090D704E090D804F090D90480917D
:10348000120590911305A0911405B09115058F3F79
:103490009F4FAF4FBF4F09F4A4C00E94B1070091E6
:1034A0001205109113052091140530911505DC01CA
:1034B000CB01801B910BA20BB30B8F3F9F4FAF4FE4
:1034C000BF4F09F48EC0C701B60120E137E240E0EA
:1034D00050E00E94C2311F922F93C701B60124E62B
:1034E00030E040E050E00E94C231CA01B90124E658
:1034F00030E040E050E00E94C2317F936F938091B2
:103500008F048F9380918E048F938DE395E09F932A
:103510008F9389EA92E09F938F930E94642781E0C2
:103520008093B60282E495E00E94B70A0FB6F89441
:10353000DEBF0FBECDBF63EC71E082E495E00E9478
:103540006B0669EA72E082E495E00E946B066DE02A
:1035500082E495E00E94400580E00E94E00A81112B
:1035600012C060E084E00E94EE0664E670E080E055
:1035700090E00E94770761E084E00E94EE0681E01F
:103580000E94E00AD8CF8DEC96E09F938F9309E8D4
:1035900012E01F930F930E946427B80182E495E024
:1035A0000E946B0687EC96E09F938F931F930F9377
:1035B0000E946427B80182E495E00E946B0683EBC9
:1035C00096E09F938F931F930F930E946427B801F7
:1035D00082E495E00E946B060FB6F894DEBF0FBE42
:1035E000CDBF87E8E9EEF3E0DF011D928A95E9F7A8
:1035F0008CE0EDE7F2E0DF01282F1D922A95E9F734
:10360000E1E7F2E0DF011D928A95E9F780E2E9E85F
:10361000F2E0DF011D928A95E9F78090D604909040
:10362000D704A090D804B090D904C090CE04D09014
:10363000CF04E090D004F090D104809112059091D5
:103640001305A0911405B09115058F3F9F4FAF4F03
:10365000BF4F89F00E94B107009112051091130528
:1036600020911405309115052B013C01401A510A97
:10367000620A730A04C044244A94542C3201C501DE
:10368000B40124E630E040E050E00E94C2316135F0
:1036900071058105910518F420ED37E002C02CE694
:1036A00037E0472046204520409409F44DC0A90149
:1036B000460F571F58A34F8FC501B40124E630E0D1
:1036C00040E050E00E94C231CA01B90124E630E076
:1036D00040E050E00E94C23168AB50E1452E57E215
:1036E000552E612C712CC501B401A30192010E94D9
:1036F000C23129ABC701B60120E432E44FE050E00B
:103700000E94C231298FC701B601A30192010E9414
:10371000C231CA01B90124E630E040E050E00E9425
:10372000C231262EC701B60124E630E040E050E069
:103730000E94C231CA01B90124E630E040E050E005
:103740000E94C2316D8B09C01D8A212C198E19AAC5
:1037500018AA8CED97E098A38F8F4090DE045090CC
:10376000DF046090E0047090E1042091E604309161
:10377000E7044091E8045091E9042D873E874F8784
:10378000588B80911A0590911B05A0911C05B09152
:103790001D058F3F9F4FAF4FBF4F11F00E94B107E4
:1037A00080913605811102C086E501C081E48093D5
:1037B0000E016091EE047091EF048091F0049091FD
:1037C000F1046F3F49EC74074AE984074BE394071F
:1037D00061F00E944B2E20E030E048EC52E40E9461
:1037E000A12D362E7BA38CA306C0312C54E25BA303
:1037F00084E78CA399E49DA36091F6047091F7048B
:103800008091F8049091F9046F3FA9EC7A07AAE936
:103810008A07ABE39A07E9F00E94492E20E030E0E6
:1038200048EC52E40E94A12D6B017C0120E030E0C5
:1038300040E85FEB0E94972D882389F026E53EE063
:103840004DEE5FE3C701B6010E946E2F6B017C0154
:1038500006C0C12CD12C40E8E42E4FEBF42EE091B1
:103860000E05F0910F05FE8FED8F2091060530912A
:103870000705409108055091090529873A874B872C
:103880005C8777FE0BC07094609450944094411C08
:10389000511C611C711C33E53FA302C04EE44FA3D1
:1038A0008D859E85AF85B889B7FF0EC0B095A09570
:1038B000909581959F4FAF4FBF4F8D879E87AF8764
:1038C000B88B97E59EA302C0A5E4AEA3BFEF4B164D
:1038D000B9EC5B06BAE96B06BBE37B0619F0530152
:1038E000420103C0812C912C5401C501B40120EA8E
:1038F00036E841E050E00E94C231122F032F498B7D
:103900005B8B60EA76E881E090E00E949E31A50141
:103910009401261B370B480B590BCA01B9012AE049
:1039200030E040E050E00E94C2315F934F933F93FC
:103930002F933B893F9349894F930F931F9386E7BA
:1039400095E09F938F938DE792E09F938F930E94D2
:1039500064270FB6F894DEBF0FBECDBF2D853E8520
:103960004F8558892F3F89EC38078AE948078BE350
:10397000580719F049015A0103C0812C912C5401B8
:10398000C501B40120EA36E841E050E00E94C231AE
:10399000122F032F498B5B8B60EA76E881E090E081
:1039A0000E949E31A5019401261B370B480B590B31
:1039B000CA01B9012AE030E040E050E00E94C23183
:1039C0005F934F933F932F933B893F9349894F9345
:1039D0000F931F938AE695E09F938F9381E792E080
:1039E0009F938F930E9464270FB6F894DEBF0FBE9B
:1039F000CDBF20E034E244E759E4632D7BA18CA1E4
:103A00009DA10E94972D882329F0F32DEBA15CA1A5
:103A10003DA104C0F0E0E0E050E030E009E812E051
:103A200022E040E06F2F7E2F852F932F0E941E27CC
:103A30000E949C0C0E94132E70930D0160930C0148
:103A40000E94D20C0E94132E70930B0160930A0106
:103A500085E10E945A0790930901809308010E9412
:103A6000D60E609110017091110180911201909118
:103A700013010E94132E709307016093060187E8DB
:103A8000E9EEF3E0DF011D928A95E9F729853A8591
:103A90004B855C852F3F3F4F4F4F5F4F21F4198679
:103AA0001A861B861C86AD8DBE8DAF3FB10519F001
:103AB0008D8D9E8D02C080E090E0FD89EF2FF0E0BB
:103AC000FA8BE98B222D30E03C8B2B8B598D452FC7
:103AD00050E059A748A7B9A9AB2FB0E0BBA7AAA748
:103AE000F8A9EF2FF0E0FDA7ECA72C852F933B85DD
:103AF0003F934A854F9359855F939F938F9320916E
:103B00000E01822F022E000C990B9F932F9389E8B0
:103B100092E09F938F931F928EA18F9381E792E003
:103B20009F938F931F929FA19F938DE792E09F9306
:103B30008F9320910F01822F022E000C990B9F93DF
:103B40002F938091C4028F938091C3028F938091B1
:103B5000C2028F938091C1028F93A885AF93BF81DA
:103B6000BF93EE81EF93FD81FF932C812F933B81D7
:103B70003F934A814F9359815F931F928D898F9311
:103B80001F922F921F92998D9F931F92A9A9AF9375
:103B90001F92B8A9BF93E8A1EF93FF8DFF93809187
:103BA0008F048F9380918E048F938BEC91E09F9381
:103BB0008F9383E696E09F938F9309EE13E01F9314
:103BC0000F930E946427D8010D900020E9F7CD01E2
:103BD0000197895E93409927FC01E751FC4F4F0103
:103BE0001082B090EA03EBEEF3E00FB6F894DEBF7C
:103BF0000FBECDBF2EA53FA52E0F3F1F281739079B
:103C00001CF42191B226F6CF8FE00E945A07BC0126
:103C1000990F880B990B0E944B2E09E812E020E0C7
:103C200044E00E941E2701E512E021E042E060E04E
:103C300070E080E690E40E941E27C8019F930F93D6
:103C40001F9285E08F931F9282E28F9380910901EA
:103C50008F93809108018F9389E892E09F938F93CF
:103C6000809107018F93809106018F9380910B01C2
:103C70008F9380910A018F9380910D018F93809192
:103C80000C018F9380918F048F9380918E048F937A
:103C900081ED91E09F938F938EE292E09F938F93BB
:103CA0001F92BF928DE396E09F938F939F928F9286
:103CB0000E9464270FB6F894DEBF0FBECDBF80917F
:103CC0003605882309F4A1C1C301B2010E94492E1F
:103CD00020E836E948E15BE40E94A12D2B013C017C
:103CE0000E94132E072E000C880B990B0E944B2E5E
:103CF0004B015C019B01AC01C301B2010E94B82CD5
:103D000020E030E040E752E40E94A12D20E030E0C6
:103D100048EC52E40E946E2FA50194010E94B92C38
:103D20006D837E838F8398876D857E858F85988947
:103D30000E94492E20E836E948E15BE40E94A12D6B
:103D40002B013C010E94132E072E000C880B990BAF
:103D50000E944B2E4B015C019B01AC01C301B201DF
:103D60000E94B82C20E030E040E752E40E94A12DF0
:103D700020E030E048EC52E40E946E2FA50194014F
:103D80000E94B92C69877A878B879C8720E030E076
:103D900040EA50E4C701B6010E94612F18161CF4D6
:103DA00005E010E002C009E110E020E030E040E270
:103DB00051E4C701B6010E94612F181614F40AE0FD
:103DC00010E020E030E040E751E4C701B6010E9476
:103DD000612F181614F404E110E080910501882386
:103DE000D9F08D819E81AF81B88580934D029093EB
:103DF0004E02A0934F02B093500229853A854B851D
:103E00005C852093490230934A0240934B025093C1
:103E10004C0210920501F9C02091490230914A02EA
:103E200040914B0250914C0269857A858B859C8527
:103E30000E94B82C25E33AEF4EE85CE30E946E2F17
:103E40006B017C010E942B306F8F78A389A39AA30A
:103E5000C701B6010E949C2D6D877E878F87988B46
:103E600025E33AEF4EE85CE36D817E818F81988592
:103E70000E946E2F6B017C0125E33AEF4EE85CE374
:103E800060914D0270914E0280914F0290915002CC
:103E90000E946E2F2B013C01C701B6010E942B30FE
:103EA0004B015C01C701B6010E949C2D6D8B7E8B7E
:103EB0008F8B988FC301B2010E942B30698F7A8F4C
:103EC0008B8F9C8FC301B2010E949C2D6B017C01E2
:103ED000298D3A8D4B8D5C8D6D897E898F89988D6A
:103EE0000E946E2F2B013C01A7019601C501B40170
:103EF0000E946E2F2D853E854F8558890E946E2F1A
:103F00009B01AC01C301B2010E94B82C9B01AC0122
:103F10000E946E2F2B013C012F8D38A149A15AA17F
:103F2000C701B6010E946E2F9B01AC010E946E2F4B
:103F30009B01AC01C301B2010E94B92C0E9439302F
:103F40002B013C01298D3A8D4B8D5C8DC501B4014F
:103F50000E946E2F4B015C01A70196016D897E893D
:103F60008F89988D0E946E2F2D853E854F855889AB
:103F70000E946E2F9B01AC01C501B4010E94B92CB7
:103F80009B01AC01C301B2010E94382D26E73BE73B
:103F900042EC5AE40E946E2F0E94132E012E000C58
:103FA000220B330B061717072807390770F5009106
:103FB0004502109146022091470230914802AB0120
:103FC000BC01400F511F621F731F40934502509365
:103FD000460260934702709348028D819E81AF81B3
:103FE000B88580934D0290934E02A0934F02B093F8
:103FF000500229853A854B855C8520934902309390
:104000004A0240934B0250934C020E94980F8091B9
:104010007C048111F1C18090BD029090BE02A090FD
:10402000BF02B090C002C501B40120E13EE040E013
:1040300050E00E94C23169017A013093440220931A
:10404000430224ECA60124038001259F100D1124B6
:10405000C501B4012CE330E040E050E00E94C231E1
:10406000200F311F30934202209341023F932F9340
:10407000DF92CF9282E396E09F938F9389E892E05C
:104080009F938F930E94642742E06CE581E695E060
:104090000E94720881E080936A0569E872E081E617
:1040A00095E00E9457060FB6F894DEBF0FBECDBF55
:1040B00080910F01813421F4809136058111D0C5A2
:1040C00060E082E10E94EE0640E060E081E695E07B
:1040D0000E94720882E080936A0531E5E32E32E0A7
:1040E000F32E80E2D7011D928A95E9F729813A8162
:1040F0004B815C81203187E2380741055105A8F1E9
:10410000CA01B9010E94492E20E030E04AE754E498
:104110000E94A12D09E812E023E044E00E941E273E
:1041200044E050E0B801C7010E943C32F701019021
:104130000020E9F7329780818E3209F4108261E520
:1041400072E081E695E00E946B0681E080936A054B
:1041500085E695E09F938F9389E892E09F938F93F4
:104160000E94642769E872E01EC069817A818B81B0
:104170009C810E94492E09E812E020E040E00E9464
:104180001E27B80181E695E00E946B0681E08093CE
:104190006A0580E695E09F938F93C8019F930F93E4
:1041A0000E946427B80181E695E00E946B060F909B
:1041B0000F900F900F9081E080936A0580913605F3
:1041C00041E081111AC06CE581E695E00E94720819
:1041D0008BE296E09F938F9389E892E09F938F9371
:1041E0000E94642769E872E081E695E00E94570624
:1041F0000F900F900F900F902AC06EE681E695E029
:104200000E9472089E8D9F93AD8DAF9388ED91E0D3
:104210009F938F9309E812E01F930F930E944B32F4
:10422000B80181E695E00E946B0689E296E09F93D3
:104230008F931F930F930E946427B80181E695E046
:104240000E9457060FB6F894DEBF0FBECDBF42E006
:1042500060E081E695E00E94720880917D04811102
:104260001EC069817A818B819C810E94492E209198
:1042700091043091920440919304509194040E94CF
:10428000A12D09E812E023E040E00E941E27B801BA
:1042900081E695E00E946B0682E296E01FC08130C5
:1042A00069F569817A818B819C810E94492E2091D8
:1042B00095043091960440919704509198040E947F
:1042C0006E2F09E812E023E040E00E941E27B801AB
:1042D00081E695E00E946B068BE196E09F938F93B9
:1042E000C8019F930F930E946427B80181E695E06F
:1042F0000E9457060F900F900F900F9080913E02F2
:1043000090913F02892BD9F160914502709146024C
:1043100080914702909148020E94492E20E030E0AF
:104320004AE754E40E94A12D09E812E021E040E0B0
:104330000E941E27F80101900020E9F73197E95803
:10434000F2408E2F880FE80FEE0F64E76E1B43E0FC
:1043500081E695E00E947208B80181E695E00E942E
:104360006B0688E196E09F938F931F930F930E94B3
:104370006427B80181E695E00E945706E0C280916B
:104380003605882359F009E812E020E040E0632D6B
:104390007BA18CA19DA10E941E270EC085E196E005
:1043A0009F938F9389E892E09F938F930E94642755
:1043B0000F900F900F900F90E9E8F2E0019000202D
:1043C000E9F73197E958F2408E2F880FE80FEE0F8A
:1043D0006AE76E1B43E081E695E00E94720869E897
:1043E00072E081E695E00E946B0666E871E081E686
:1043F00095E00E945706A7C2813009F08AC260E0AA
:1044000082E10E94EE068091990490919A04A0E0C6
:10441000B0E029813A814B815C8182179307A40720
:10442000B50710F461E001C060E082E10E94EE0691
:1044300040E060E081E695E00E94720882E08093AF
:104440006A0521E5622E22E0722E80E2D3011D92E0
:104450008A95E9F769817A818B819C810E94492E36
:104460006B017C012091910430919204409193045E
:10447000509194040E94A12D4B015C0120E030E09A
:104480004AE754E40E94612F87FD29C020E030E014
:104490004AE754E4C501B4010E94A12D09E812E0E5
:1044A00022E044E00E941E2745E050E0B801C3012D
:1044B0000E943C32F30101900020E9F7329780819D
:1044C0008E3209F4108261E572E081E695E00E9487
:1044D0006B0681E080936A058AE595E04FC020E095
:1044E00030E040E251E4C501B4010E94612F09E8C7
:1044F00012E087FD22C022E044E0C501B4010E9421
:104500001E2745E050E0B80181E592E00E943C3270
:10451000F30101900020E9F7329780818E3209F48F
:10452000108261E572E081E695E00E946B0681E011
:1045300080936A0584E595E021C023E044E0C5014D
:10454000B4010E941E2746E050E0B80181E592E0E8
:104550000E943C32F30101900020E9F732978081FC
:104560008E3209F4108261E572E081E695E00E94E6
:104570006B0681E080936A058EE495E09F938F93AC
:1045800089E892E09F938F930E94642769E872E024
:1045900081E695E00E946B060F900F900F900F90B0
:1045A00091E5A92E92E0B92E80E2F50111928A954B
:1045B000E9F742E060E081E695E00E94720881E060
:1045C00080936A0580913E0290913F02892B09F405
:1045D000E7C00E94BA0E20E030E040E650E40E94BE
:1045E000B82C20E030E046E253E40E946E2F0E9497
:1045F000132E643171053CF46CED71E081E695E0B9
:104600000E946B06A0C129813A814B815C81293EC1
:1046100033404105510588F120E030E04AE754E499
:10462000C701B6010E94A12D09E812E021E040E097
:104630000E941E2745E050E0B80181E592E00E940B
:104640003C32F50101900020E9F7329780818E32EB
:1046500009F4108261E572E081E695E00E946B0644
:104660008FE096E09F938F9389E892E09F938F93DA
:104670000E94642769E872E017C009E812E020E0B0
:1046800040E0C701B6010E941E27B80181E695E00F
:104690000E946B068AE096E09F938F93C8019F93D8
:1046A0000F930E946427B80181E695E00E946B0693
:1046B0000F900F900F900F902091950430919604D9
:1046C0004091970450919804C701B6010E946E2F43
:1046D0006B017C0120E034E244E759E40E94612F41
:1046E0001816F4F420E034E244E759E4C701B601B7
:1046F0000E94A12D09E812E021E040E00E941E275F
:1047000045E050E0B80181E592E00E943C3261E56D
:1047100072E081E695E00E946B0683E096E037C088
:1047200020E030E44CE156E4C701B6010E94612F5D
:104730001816F4F420E030E04AE754E4C701B6016B
:104740000E94A12D09E812E020E040E00E941E270F
:1047500045E050E0B80181E592E00E943C3261E51D
:1047600072E081E695E00E946B068CEF95E00FC049
:1047700009E812E020E040E0C701B6010E941E27D0
:10478000B80181E695E00E946B0686EF95E09F9365
:104790008F93C8019F930F930E946427B801CBC0E9
:1047A0000E94BA0E20E030E040E650E40E94B82CAF
:1047B00020E030E046E253E40E946E2F0E94132E68
:1047C000643171050CF418CF82EF95E09F938F93BD
:1047D00089E8682E82E0782E7F926F920E9464278B
:1047E000B30181E695E00E946B066091B902709179
:1047F000BA028091BB029091BC020E94492E209186
:1048000091043091920440919304509194040E9439
:10481000A12D830121E040E00E941E27B30181E623
:1048200095E00E946B068CEE95E09F938F937F92AC
:104830006F920E946427B30181E695E00E946B06A7
:1048400088EE95E09F938F937F926F920E946427EA
:10485000B30181E695E00E946B066091740470914B
:10486000750480917604909177040E94492E6B0123
:104870007C01609170047091710480917204909138
:1048800073040E94492E4B015C0120E030E040E7B8
:1048900052E4C701B6010E94A12D9B01AC01C501E4
:1048A000B4010E94A12D2091910430919204409175
:1048B0009304509194040E94A12D4B015C0120E0CF
:1048C00030E041E655E4C701B6010E94A12D9B01ED
:1048D000AC01C501B4010E946E2F20E040E00E94AF
:1048E0001E27B30181E695E00E946B0685EE95E0F8
:1048F0009F938F937F926F920E946427B30181E60A
:1049000095E00E946B060FB6F894DEBF0FBECDBFD8
:104910001AC045E060E081E695E00E94720888EDEB
:1049200095E09F938F9389E892E09F938F930E94E5
:10493000642769E872E081E695E00E946B060F90BB
:104940000F900F900F9080914002882349F1BA890F
:10495000BF93E989EF93FC89FF932B892F9339A5A6
:104960003F9348A54F935DA55F938CA58F939BA51F
:104970009F93AAA5AF938FEB95E09F938F9389E8C0
:1049800092E09F938F930E94642743E060E081E66A
:1049900095E00E94720869E872E081E695E02DC01A
:1049A00043E060E081E695E00E94720889EA95E0C4
:1049B0009F938F9389E892E09F938F930E9464273F
:1049C00069E872E081E695E00E946B0660E082E1B2
:1049D0000E94EE06E9EEF3E087E8DF011D928A957A
:1049E000E9F78DE995E09F938F93FF93EF930E94F2
:1049F000642769EE73E08FEA94E00E9457060FB6D1
:104A0000F894DEBF0FBECDBF40E069E681E695E0D9
:104A10000E9472080E94BA0E20E030E040E650E4A6
:104A20000E94B82C20E030E046E253E40E946E2F52
:104A30000E94132E77FD06C0653671052CF064E6E2
:104A400070E002C061E070E07F936F9388E995E0C9
:104A50009F938F9309E812E01F930F930E9464279E
:104A6000B80181E695E00E946B0662EF71E081E695
:104A700095E00E946B0644E060E081E695E00E94CC
:104A8000720880910D018F9380910C018F9380E9C2
:104A900095E09F938F931F930F930E946427B80113
:104AA00081E695E00E946B068EE895E09F938F93D8
:104AB0001F930F930E946427B80181E695E00E943E
:104AC0006B0644E064E381E695E00E947208809101
:104AD0000B018F9380910A018F9385E895E09F9356
:104AE0008F931F930F930E946427B80181E695E08E
:104AF0000E946B0682E895E09F938F931F930F931C
:104B00000E946427B80181E695E00E946B0645E0AB
:104B100060E081E695E00E94720864EF71E081E652
:104B200095E00E946B060E94D60E60911001709174
:104B30001101809112019091130120E044E00E9444
:104B40001E27B80181E695E00E946B0646E060E012
:104B500081E695E00E94720868EF71E081E695E0D9
:104B60000E946B068FE00E945A070E94190F45E0D1
:104B700066E381E695E00E9472086DEF71E081E6E0
:104B800095E00E946B0646E066E381E695E00E94B0
:104B9000720864E072E081E695E00E946B060FB651
:104BA000F894DEBF0FBECDBF80913E0290913F02D0
:104BB00047E060E0892BC1F081E695E00E94720831
:104BC00069E072E081E695E00E946B0685E10E9453
:104BD0005A070E94190F47E066E381E695E00E94BC
:104BE00072086EE072E012C081E695E00E947208E1
:104BF00067E172E081E695E00E946B0647E064E5BC
:104C000081E695E00E9472086FE172E081E695E02E
:104C10000E946B0680913E0290913F0231E0832713
:104C200090933F0280933E0269EE73E086E493E046
:104C30000E9457068091B602882371F080917C040F
:104C400081110AC082E495E00E94B70A69EE73E020
:104C500082E495E00E9457060E94CE040C94DA1577
:104C600080914002882309F42BCA61E02ACA10937C
:104C700033050C94E218109233050C94E218CF938C
:104C8000DF93C8E1D1E0D093B004C093AF048FEAC2
:104C900094E00E94CD05D0934305C093420582E481
:104CA00095E0DF91CF910C94CD05CF93E6E4F3E04E
:104CB0001382128288EE93E0A0E0B0E084839583B3
:104CC000A683B7838AE291E09183808385EC90E0AC
:104CD0009587848784EC90E09787868780EC90E0C6
:104CE000918B808B81EC90E0938B828B82EC90E0B7
:104CF000958B848B86EC90E0978B868B118E128E31
:104D0000138E148EE1E6F5E013821282C1E0C187B2
:104D1000138612868AE591E09183808320E045E046
:104D200066E082E495E00E94D709EEECF4E04FEFF4
:104D30005FEFBA01408351836283738310861186CB
:104D4000128613868FEF99ECAAE9BBE3808B918BD7
:104D5000A28BB38B808F918FA28FB38F80A391A3EF
:104D6000A2A3B3A380A791A7A2A7B3A780AB91AB3F
:104D7000A2ABB3AB40AF51AF62AF73AF8FEF90E078
:104D800090930F0580930E054093120550931305E1
:104D9000609314057093150540931A0550931B05F5
:104DA00060931C0570931D05109222051092230537
:104DB00082E08093330510923405109235051092ED
:104DC0003605109238051092390510923A05109266
:104DD0003B0510923D0510923C0510923F05109244
:104DE0003E0510922405C093370520E047E068E0B7
:104DF0008FEA94E00E94D709E5EAF4E082E495E0C6
:104E00009183808388E794E09383828380E794E0B2
:104E10009583848389EE93E09783868387E890E087
:104E200091878087E3EEF3E081E190E091838083D6
:104E300080E190E093838283CF910895EF920F9366
:104E40001F93CF93DF93E80147FD02C034E001C018
:104E500034E1E42F440FFF0BF7FF03C0F195E19518
:104E6000F109E32E022F2E2FAE010E945929CE0107
:104E7000DF91CF911F910F91EF900895FC0188274A
:104E80009927E89421912032E9F3293010F02E304F
:104E9000C8F32B3241F02D3239F4689404C00E94DB
:104EA0005C27820F911D219120532A30C0F31EF4FC
:104EB000909581959F4F08957AE0979F902D879FB9
:104EC000802D910D11240895AEE0B0E0EAE6F7E2FE
:104ED0000C948F2C0D891E898EE08C831A83098394
:104EE0008FEF9FE79E838D83AE01475E5F4F6F8993
:104EF000788DCE0101960E9487272F813885F80191
:104F0000E20FF31F10822E96E4E00C94AB2CACE081
:104F1000B0E0EDE8F7E20C94812C7C016B018A0192
:104F2000FC0117821682838181FFBDC1CE010196EB
:104F30004C01F7019381F60193FD859193FF8191D7
:104F40006F01882309F4ABC1853239F493FD859153
:104F500093FF81916F01853229F4B70190E00E949F
:104F6000D52BE7CF512C312C20E02032A0F48B320E
:104F700069F030F4803259F0833269F420612CC03A
:104F80008D3239F0803339F4216026C022602460EC
:104F900023C0286021C027FD27C030ED380F3A30EC
:104FA00078F426FF06C0FAE05F9E300D1124532EE0
:104FB00013C08AE0389E300D1124332E20620CC0BD
:104FC0008E3221F426FD6BC1206406C08C3611F4AC
:104FD000206802C0883641F4F60193FD859193FF65
:104FE00081916F018111C1CF982F9F7D955493308E
:104FF00028F40C5F1F4FFFE3F9830DC0833631F0B7
:10500000833771F0833509F05BC022C0F8018081DD
:1050100089830E5F1F4F44244394512C540115C0C3
:105020003801F2E06F0E711CF801A080B18026FFFC
:1050300003C0652D70E002C06FEF7FEFC5012C87C4
:105040000E94CA2B2C0183012C852F77222E17C09A
:105050003801F2E06F0E711CF801A080B18026FFCC
:1050600003C0652D70E002C06FEF7FEFC5012C8794
:105070000E94BF2B2C012C852068222E830123FC4B
:105080001BC0832D90E048165906B0F4B70180E2AA
:1050900090E00E94D52B3A94F4CFF50127FC85913E
:1050A00027FE81915F01B70190E00E94D52B31105E
:1050B0003A94F1E04F1A51084114510471F7E5C0D8
:1050C000843611F0893639F5F80127FF07C0608171
:1050D0007181828193810C5F1F4F08C06081718153
:1050E000072E000C880B990B0E5F1F4F2F76722E28
:1050F00097FF09C090958095709561957F4F8F4F70
:105100009F4F2068722E2AE030E0A4010E940D2CEF
:10511000A82EA81844C0853729F42F7EB22E2AE085
:1051200030E025C0F22FF97FBF2E8F36C1F018F482
:10513000883579F0B4C0803719F0883721F0AFC0D6
:105140002F2F2061B22EB4FE0DC08B2D8460B82E9F
:1051500009C024FF0AC09F2F9660B92E06C028E020
:1051600030E005C020E130E002C020E132E0F8018B
:10517000B7FE07C060817181828193810C5F1F4FF0
:1051800006C06081718180E090E00E5F1F4FA40136
:105190000E940D2CA82EA818FB2DFF777F2E76FEDF
:1051A0000BC0372D3E7FA51450F474FE0AC072FC6C
:1051B00008C0372D3E7E05C0BA2C372D03C0BA2C4F
:1051C00001C0B52C34FF0DC0FE01EA0DF11D808138
:1051D000803311F4397E09C032FF06C0B394B39412
:1051E00004C0832F867809F0B39433FD13C030FFD9
:1051F00006C05A2CB31418F4530C5B18B32CB31418
:1052000068F4B70180E290E03C870E94D52BB3940C
:105210003C85F5CFB31410F43B1801C0312C34FF9A
:1052200012C0B70180E390E03C870E94D52B3C85FB
:1052300032FF17C031FD03C088E790E002C088E567
:1052400090E0B7010CC0832F867859F031FF02C07F
:105250008BE201C080E237FD8DE2B70190E00E9451
:10526000D52BA51438F4B70180E390E00E94D52B2C
:105270005A94F7CFAA94F401EA0DF11D8081B70189
:1052800090E00E94D52BA110F5CF332009F451CE28
:10529000B70180E290E00E94D52B3A94F6CFF70157
:1052A0008681978102C08FEF9FEF2C96E2E10C94EC
:1052B0009D2C4F925F926F927F929F92AF92BF927E
:1052C000CF92DF92EF92FF920F931F93CF93DF93D2
:1052D000CDB7DEB729970FB6F894DEBF0FBECDBFAE
:1052E0006A01122FB02E2BE3201720F0FF24F39435
:1052F000F00E02C0BCE3FB2E0F2D27E0AE014F5F86
:105300005F4F0E94E72AAC018981982F99709130F4
:1053100031F0E1FC06C0E0FE06C090E205C09DE26F
:1053200003C09BE201C090E0EE2DE07183FF3CC022
:10533000911102C083E001C084E0811718F4212F8D
:10534000281B01C020E0E1110BC0F601822F30E2E2
:10535000882319F031938150FBCFC20ED11C20E07D
:10536000992329F0D6019C93F60131966F01C6016D
:105370000396E2FE0AC03EE4D6013C9341E4119656
:105380004C93119712963C9306C03EE6F60130838B
:1053900041E641833283FC01322F40E2332309F49A
:1053A00042C041933150FACF82FF44C0911102C0F4
:1053B00083E001C084E0811718F4212F281B01C06D
:1053C00020E0E1110BC0F601822F30E2882319F0B2
:1053D00031938150FBCFC20ED11C20E0992329F0DC
:1053E000D6019C93F60131966F01C6010396E2FE49
:1053F0000BC039E4D6013C933EE411963C931197DF
:1054000036E412963C9307C039E6F60130833EE657
:10541000318336E63283FC01322F40E2332319F028
:1054200041933150FBCFFC01E20FF11D10828EEF52
:105430009FEFB7C0F1E0911101C0F0E06F2F70E075
:105440001416150624F49A012F5F3F4F02C021E085
:1054500030E0260F371FBB2029F06B2D70E06F5F07
:105460007F4F02C060E070E0260F371F612F70E0B1
:10547000261737071CF4121B212F01C020E03E2DF8
:10548000387159F4D601322F60E2332319F06D934D
:105490003150FBCFC20ED11C20E0FF2331F0D601EA
:1054A0009C93B6016F5F7F4F6B01E1110BC0F6015A
:1054B000922F30E3992319F031939150FBCFC20E14
:1054C000D11C20E09F2D940F3A81782F7071A72E68
:1054D00084FF03C0313309F49150191624F4993034
:1054E00018F098E001C091E0E42F852F57FF02C02B
:1054F000E0E080E06E2F782FE0E0F0E0AEE29A2E60
:105500003A01691A71082A01461A570A0B2D10E050
:105510001195019511096F3F8FEF780729F4D60196
:105520009C92C60101966C014617570784F06616D7
:1055300077066CF47F01E40CF51CA1E0B0E0AC0F41
:10554000BD1FEA0EFB1ED7011196BC9002C090E36E
:10555000B92E615071093196C60101967C01601720
:10556000710724F0D601BC926C01D5CF6417750782
:1055700041F4363320F4353321F4A11002C081E325
:10558000B82EF601B082F701822F90E2882319F03D
:1055900091938150FBCFF701E20FF11D108280E063
:1055A00090E029960FB6F894DEBF0FBECDBFDF9115
:1055B000CF911F910F91FF90EF90DF90CF90BF9010
:1055C000AF909F907F906F905F904F90089528309C
:1055D00008F027E03327DA01990F311D87FD91602C
:1055E00000966105710539F432602E5F3D9330E31A
:1055F0002A95E1F708959F3F30F0803871056105E5
:1056000009F03C5F3C5F3D93913008F08068911D4C
:10561000DF93CF931F930F93FF92EF92192F987FF1
:105620009695E92F96959695E90FFF27EE51FE4F37
:1056300099273327EE24FF24A701E701059008945A
:10564000079428F4360FE71EF81E491F511D660FF8
:10565000771F881F991F0694A1F70590079428F4D7
:10566000E70EF81E491F561FC11D770F881F991F8F
:10567000661F0694A1F70590079428F4F80E491FB9
:10568000561FC71FD11D880F991F661F771F0694CD
:10569000A1F70590079420F4490F561FC71FD81F84
:1056A000990F661F771F881F0694A9F7849110959C
:1056B000177041F0D695C79557954795F794E7949D
:1056C0001A95C1F7E8E8F1E06894159015913591C5
:1056D0006591959105907FE27395E118F10A430B6E
:1056E000560BC90BD009C0F7E10CF11E431F561F22
:1056F000C91FD01D7EF4703311F48A95E6CFE8946B
:10570000015030F0080F0AF40027021708F4202F88
:105710002395022F7A3328F079E37D932A95E9F7D0
:1057200010C07D932A9589F60694979567953795CD
:1057300017951794E118F10A430B560BC90BD009C2
:1057400098F023957E9173957A3308F070E37C93FB
:105750002013B8F77E9170617D9330F0839571E3EB
:105760007D9370E32A95E1F71124EF90FF900F915C
:105770001F91CF91DF91992787FD90950895FC01A6
:105780000590615070400110D8F7809590958E0F6C
:105790009F1F0895FC016150704001900110D8F7DF
:1057A000809590958E0F9F1F08950F931F93CF9311
:1057B000DF93FB01238121FD03C08FEF9FEF28C002
:1057C00022FF16C046815781248135814217530735
:1057D00044F4A081B1819D012F5F3F4F318320832D
:1057E0008C93268137812F5F3F4F3783268310C0EC
:1057F000EB01092F182F0084F185E02D0995892BE5
:10580000E1F68E819F8101969F838E83812F902F59
:10581000DF91CF911F910F910895FA01AA272830A7
:1058200051F1203181F1E8946F936E7F6E5F7F4F6D
:105830008F4F9F4FAF4FB1E03ED0B4E03CD0670FE9
:10584000781F891F9A1FA11D680F791F8A1F911D3C
:10585000A11D6A0F711D811D911DA11D20D009F48C
:1058600068943F912AE0269F11243019305D3193CE
:10587000DEF6CF010895462F4770405D4193B3E0B7
:105880000FD0C9F7F6CF462F4F70405D4A3318F05E
:10589000495D31FD4052419302D0A9F7EACFB4E00F
:1058A000A6959795879577956795BA95C9F70097C7
:1058B0006105710508959B01AC010A2E0694579568
:1058C000479537952795BA95C9F7620F731F841FBF
:1058D000951FA01D0895F999FECF92BD81BDF89A3C
:1058E000992780B50895262FF999FECF1FBA92BD4A
:1058F00081BD20BD0FB6F894FA9AF99A0FBE0196B1
:1059000008952F923F924F925F926F927F928F9263
:105910009F92AF92BF92CF92DF92EF92FF920F933E
:105920001F93CF93DF93CDB7DEB7CA1BDB0B0FB648
:10593000F894DEBF0FBECDBF09942A883988488805
:105940005F846E847D848C849B84AA84B984C8849B
:10595000DF80EE80FD800C811B81AA81B981CE0F92
:10596000D11D0FB6F894DEBF0FBECDBFED01089577
:105970005058BB27AA270E94D02C0C94132F0E94AA
:10598000DA2E38F00E94E12E20F039F49F3F19F40E
:1059900026F40C94B02E0EF4E095E7FB0C94AA2E9E
:1059A000E92F0E94382F58F3BA176207730784074C
:1059B000950720F079F4A6F50C945A2F0EF4E09593
:1059C0000B2EBA2FA02D0B01B90190010C01CA01B9
:1059D000A0011124FF27591B99F0593F50F4503E64
:1059E00068F11A16F040A22F232F342F4427585F56
:1059F000F3CF469537952795A795F0405395C9F76E
:105A00007EF41F16BA0B620B730B840BBAF0915025
:105A1000A1F0FF0FBB1F661F771F881FC2F70EC0C4
:105A2000BA0F621F731F841F48F487957795679597
:105A3000B795F7959E3F08F0B0CF9395880F08F083
:105A40009927EE0F9795879508950E94DA2E60F0BA
:105A500080E891E009F49EEF0E94E12E28F040E8F2
:105A600051E071F45EEF0CC00C94B02E0C945A2FE0
:105A7000E92FE0780E94382F40F3092E052AB1F370
:105A8000261737074807590738F00E2E07F8E02584
:105A900069F0E025E0640AC0EF6307F8009407FAB4
:105AA000DB01B9019D01DC01CA01AD01EF930E9448
:105AB000B82D0E94132F0E94682D5F91552339F055
:105AC0002BED3FE049E450FD49EC0C94B92C0895CE
:105AD000DF93DD27B92FBF7740E85FE3161617067F
